{
  "_format": "hh-sol-artifact-1",
  "contractName": "Crowdfunding",
  "sourceName": "contracts/Crowdfunding.sol",
  "abi": [
    {
      "anonymous": false,
      "inputs": [
        {
          "indexed": false,
          "internalType": "address",
          "name": "_creator",
          "type": "address"
        },
        {
          "indexed": false,
          "internalType": "string",
          "name": "_cause",
          "type": "string"
        },
        {
          "indexed": false,
          "internalType": "string",
          "name": "_futurePlans",
          "type": "string"
        },
        {
          "indexed": false,
          "internalType": "uint256",
          "name": "_startDate",
          "type": "uint256"
        },
        {
          "indexed": false,
          "internalType": "uint256",
          "name": "_endDate",
          "type": "uint256"
        },
        {
          "indexed": false,
          "internalType": "uint256",
          "name": "_requiredAmount",
          "type": "uint256"
        }
      ],
      "name": "campaignCreation",
      "type": "event"
    },
    {
      "anonymous": false,
      "inputs": [
        {
          "indexed": false,
          "internalType": "address",
          "name": "_funder",
          "type": "address"
        },
        {
          "indexed": false,
          "internalType": "uint256",
          "name": "_campaignID",
          "type": "uint256"
        },
        {
          "indexed": false,
          "internalType": "uint256",
          "name": "_donationAmount",
          "type": "uint256"
        },
        {
          "indexed": false,
          "internalType": "uint256",
          "name": "_donationTime",
          "type": "uint256"
        }
      ],
      "name": "donation",
      "type": "event"
    },
    {
      "inputs": [
        {
          "internalType": "uint256",
          "name": "",
          "type": "uint256"
        }
      ],
      "name": "allCampaigns",
      "outputs": [
        {
          "internalType": "address payable",
          "name": "creator",
          "type": "address"
        },
        {
          "internalType": "uint256",
          "name": "campaignNumber",
          "type": "uint256"
        },
        {
          "internalType": "string",
          "name": "cause",
          "type": "string"
        },
        {
          "internalType": "string",
          "name": "futurePlans",
          "type": "string"
        },
        {
          "internalType": "uint256",
          "name": "startDate",
          "type": "uint256"
        },
        {
          "internalType": "uint256",
          "name": "endDate",
          "type": "uint256"
        },
        {
          "internalType": "uint256",
          "name": "requiredAmount",
          "type": "uint256"
        },
        {
          "internalType": "uint256",
          "name": "raisedAmount",
          "type": "uint256"
        }
      ],
      "stateMutability": "view",
      "type": "function"
    },
    {
      "inputs": [
        {
          "internalType": "string",
          "name": "_cause",
          "type": "string"
        },
        {
          "internalType": "string",
          "name": "_futurePlans",
          "type": "string"
        },
        {
          "internalType": "uint256",
          "name": "_endDate",
          "type": "uint256"
        },
        {
          "internalType": "uint256",
          "name": "_requiredAmount",
          "type": "uint256"
        }
      ],
      "name": "createCampaign",
      "outputs": [],
      "stateMutability": "nonpayable",
      "type": "function"
    },
    {
      "inputs": [
        {
          "internalType": "uint256",
          "name": "_campaignID",
          "type": "uint256"
        }
      ],
      "name": "donate",
      "outputs": [
        {
          "internalType": "string",
          "name": "",
          "type": "string"
        }
      ],
      "stateMutability": "payable",
      "type": "function"
    },
    {
      "inputs": [],
      "name": "viewCampaigns",
      "outputs": [
        {
          "components": [
            {
              "internalType": "address payable",
              "name": "creator",
              "type": "address"
            },
            {
              "internalType": "uint256",
              "name": "campaignNumber",
              "type": "uint256"
            },
            {
              "internalType": "string",
              "name": "cause",
              "type": "string"
            },
            {
              "internalType": "string",
              "name": "futurePlans",
              "type": "string"
            },
            {
              "internalType": "uint256",
              "name": "startDate",
              "type": "uint256"
            },
            {
              "internalType": "uint256",
              "name": "endDate",
              "type": "uint256"
            },
            {
              "internalType": "uint256",
              "name": "requiredAmount",
              "type": "uint256"
            },
            {
              "internalType": "uint256",
              "name": "raisedAmount",
              "type": "uint256"
            }
          ],
          "internalType": "struct Crowdfunding.Campaign[]",
          "name": "",
          "type": "tuple[]"
        }
      ],
      "stateMutability": "view",
      "type": "function"
    }
  ],
  "bytecode": "0x608060405260008055348015601357600080fd5b50611bd6806100236000396000f3fe60806040526004361061003f5760003560e01c8063366919e914610044578063a318f2691461006f578063a509f4d114610098578063f14faf6f146100dc575b600080fd5b34801561005057600080fd5b5061005961010c565b6040516100669190610f17565b60405180910390f35b34801561007b57600080fd5b50610096600480360381019061009191906110ae565b610318565b005b3480156100a457600080fd5b506100bf60048036038101906100ba919061114d565b610520565b6040516100d39897969594939291906111e2565b60405180910390f35b6100f660048036038101906100f1919061114d565b6106a8565b604051610103919061126e565b60405180910390f35b60606001805480602002602001604051908101604052809291908181526020016000905b8282101561030f5783829060005260206000209060080201604051806101000160405290816000820160009054906101000a900473ffffffffffffffffffffffffffffffffffffffff1673ffffffffffffffffffffffffffffffffffffffff1673ffffffffffffffffffffffffffffffffffffffff168152602001600182015481526020016002820180546101c4906112bf565b80601f01602080910402602001604051908101604052809291908181526020018280546101f0906112bf565b801561023d5780601f106102125761010080835404028352916020019161023d565b820191906000526020600020905b81548152906001019060200180831161022057829003601f168201915b50505050508152602001600382018054610256906112bf565b80601f0160208091040260200160405190810160405280929190818152602001828054610282906112bf565b80156102cf5780601f106102a4576101008083540402835291602001916102cf565b820191906000526020600020905b8154815290600101906020018083116102b257829003601f168201915b5050505050815260200160048201548152602001600582015481526020016006820154815260200160078201548152505081526020019060010190610130565b50505050905090565b6000811161035b576040517f08c379a00000000000000000000000000000000000000000000000000000000081526004016103529061133c565b60405180910390fd5b42821161039d576040517f08c379a0000000000000000000000000000000000000000000000000000000008152600401610394906113ce565b60405180910390fd5b60016040518061010001604052803373ffffffffffffffffffffffffffffffffffffffff16815260200160005481526020018681526020018581526020014281526020018481526020018381526020016000815250908060018154018082558091505060019003906000526020600020906008020160009091909190915060008201518160000160006101000a81548173ffffffffffffffffffffffffffffffffffffffff021916908373ffffffffffffffffffffffffffffffffffffffff160217905550602082015181600101556040820151816002019081610481919061159a565b506060820151816003019081610497919061159a565b506080820151816004015560a0820151816005015560c0820151816006015560e0820151816007015550506000808154809291906104d49061169b565b91905055507f68fa8f26c50bfa1e612aad46be68e246228adf10a70ae2a2f28b0d0a7140763733858542868660405161051296959493929190611704565b60405180910390a150505050565b6001818154811061053057600080fd5b90600052602060002090600802016000915090508060000160009054906101000a900473ffffffffffffffffffffffffffffffffffffffff169080600101549080600201805461057f906112bf565b80601f01602080910402602001604051908101604052809291908181526020018280546105ab906112bf565b80156105f85780601f106105cd576101008083540402835291602001916105f8565b820191906000526020600020905b8154815290600101906020018083116105db57829003601f168201915b50505050509080600301805461060d906112bf565b80601f0160208091040260200160405190810160405280929190818152602001828054610639906112bf565b80156106865780601f1061065b57610100808354040283529160200191610686565b820191906000526020600020905b81548152906001019060200180831161066957829003601f168201915b5050505050908060040154908060050154908060060154908060070154905088565b606081600181815481106106bf576106be611773565b5b9060005260206000209060080201600501544210610712576040517f08c379a0000000000000000000000000000000000000000000000000000000008152600401610709906117ee565b60405180910390fd5b3460008111610756576040517f08c379a000000000000000000000000000000000000000000000000000000000815260040161074d9061185a565b60405180910390fd5b83600054811061079b576040517f08c379a0000000000000000000000000000000000000000000000000000000008152600401610792906118c6565b60405180910390fd5b84600181815481106107b0576107af611773565b5b906000526020600020906008020160060154600182815481106107d6576107d5611773565b5b90600052602060002090600802016007015410610828576040517f08c379a000000000000000000000000000000000000000000000000000000000815260040161081f90611958565b60405180910390fd5b343373ffffffffffffffffffffffffffffffffffffffff16311015610882576040517f08c379a0000000000000000000000000000000000000000000000000000000008152600401610879906119ea565b60405180910390fd5b6000600260003373ffffffffffffffffffffffffffffffffffffffff1673ffffffffffffffffffffffffffffffffffffffff16815260200190815260200160002090506000816001016000898152602001908152602001600020541461091d576040517f08c379a000000000000000000000000000000000000000000000000000000000815260040161091490611a7c565b60405180910390fd5b6001878154811061093157610930611773565b5b9060005260206000209060080201600601546001888154811061095757610956611773565b5b906000526020600020906008020160070154346109749190611a9c565b1115610b3a576000600188815481106109905761098f611773565b5b906000526020600020906008020160070154600189815481106109b6576109b5611773565b5b9060005260206000209060080201600601546109d29190611ad0565b9050600188815481106109e8576109e7611773565b5b906000526020600020906008020160000160009054906101000a900473ffffffffffffffffffffffffffffffffffffffff1673ffffffffffffffffffffffffffffffffffffffff166108fc829081150290604051600060405180830381858888f19350505050158015610a5f573d6000803e3d6000fd5b5060018881548110610a7457610a73611773565b5b90600052602060002090600802016006015460018981548110610a9a57610a99611773565b5b906000526020600020906008020160070181905550808260010160008a81526020019081526020016000206000828254610ad49190611a9c565b925050819055507f9199efb3ecf33473ae6d427e355e760bdc2e47a7bb89d53380930f9338539aad33898342604051610b109493929190611b04565b60405180910390a1604051806080016040528060578152602001611b4a6057913996505050610cab565b60003490508060018981548110610b5457610b53611773565b5b90600052602060002090600802016007016000828254610b749190611a9c565b9250508190555060018881548110610b8f57610b8e611773565b5b906000526020600020906008020160000160009054906101000a900473ffffffffffffffffffffffffffffffffffffffff1673ffffffffffffffffffffffffffffffffffffffff166108fc829081150290604051600060405180830381858888f19350505050158015610c06573d6000803e3d6000fd5b50808260010160008a81526020019081526020016000206000828254610c2c9190611a9c565b925050819055507f9199efb3ecf33473ae6d427e355e760bdc2e47a7bb89d53380930f9338539aad33898342604051610c689493929190611b04565b60405180910390a16040518060400160405280600781526020017f446f6e6174656400000000000000000000000000000000000000000000000000815250965050505b50505050919050565b600081519050919050565b600082825260208201905092915050565b6000819050602082019050919050565b600073ffffffffffffffffffffffffffffffffffffffff82169050919050565b6000610d0b82610ce0565b9050919050565b610d1b81610d00565b82525050565b6000819050919050565b610d3481610d21565b82525050565b600081519050919050565b600082825260208201905092915050565b60005b83811015610d74578082015181840152602081019050610d59565b60008484015250505050565b6000601f19601f8301169050919050565b6000610d9c82610d3a565b610da68185610d45565b9350610db6818560208601610d56565b610dbf81610d80565b840191505092915050565b600061010083016000830151610de36000860182610d12565b506020830151610df66020860182610d2b565b5060408301518482036040860152610e0e8282610d91565b91505060608301518482036060860152610e288282610d91565b9150506080830151610e3d6080860182610d2b565b5060a0830151610e5060a0860182610d2b565b5060c0830151610e6360c0860182610d2b565b5060e0830151610e7660e0860182610d2b565b508091505092915050565b6000610e8d8383610dca565b905092915050565b6000602082019050919050565b6000610ead82610cb4565b610eb78185610cbf565b935083602082028501610ec985610cd0565b8060005b85811015610f055784840389528151610ee68582610e81565b9450610ef183610e95565b925060208a01995050600181019050610ecd565b50829750879550505050505092915050565b60006020820190508181036000830152610f318184610ea2565b905092915050565b6000604051905090565b600080fd5b600080fd5b600080fd5b600080fd5b7f4e487b7100000000000000000000000000000000000000000000000000000000600052604160045260246000fd5b610f8f82610d80565b810181811067ffffffffffffffff82111715610fae57610fad610f57565b5b80604052505050565b6000610fc1610f39565b9050610fcd8282610f86565b919050565b600067ffffffffffffffff821115610fed57610fec610f57565b5b610ff682610d80565b9050602081019050919050565b82818337600083830152505050565b600061102561102084610fd2565b610fb7565b90508281526020810184848401111561104157611040610f52565b5b61104c848285611003565b509392505050565b600082601f83011261106957611068610f4d565b5b8135611079848260208601611012565b91505092915050565b61108b81610d21565b811461109657600080fd5b50565b6000813590506110a881611082565b92915050565b600080600080608085870312156110c8576110c7610f43565b5b600085013567ffffffffffffffff8111156110e6576110e5610f48565b5b6110f287828801611054565b945050602085013567ffffffffffffffff81111561111357611112610f48565b5b61111f87828801611054565b935050604061113087828801611099565b925050606061114187828801611099565b91505092959194509250565b60006020828403121561116357611162610f43565b5b600061117184828501611099565b91505092915050565b61118381610d00565b82525050565b61119281610d21565b82525050565b600082825260208201905092915050565b60006111b482610d3a565b6111be8185611198565b93506111ce818560208601610d56565b6111d781610d80565b840191505092915050565b6000610100820190506111f8600083018b61117a565b611205602083018a611189565b818103604083015261121781896111a9565b9050818103606083015261122b81886111a9565b905061123a6080830187611189565b61124760a0830186611189565b61125460c0830185611189565b61126160e0830184611189565b9998505050505050505050565b6000602082019050818103600083015261128881846111a9565b905092915050565b7f4e487b7100000000000000000000000000000000000000000000000000000000600052602260045260246000fd5b600060028204905060018216806112d757607f821691505b6020821081036112ea576112e9611290565b5b50919050565b7f526571756972656420616d6f756e74206d75737420626520706f736974697665600082015250565b6000611326602083611198565b9150611331826112f0565b602082019050919050565b6000602082019050818103600083015261135581611319565b9050919050565b7f43616d706169676e2073686f756c6420656e642061667465722069747320637260008201527f656174696f6e0000000000000000000000000000000000000000000000000000602082015250565b60006113b8602683611198565b91506113c38261135c565b604082019050919050565b600060208201905081810360008301526113e7816113ab565b9050919050565b60008190508160005260206000209050919050565b60006020601f8301049050919050565b600082821b905092915050565b6000600883026114507fffffffffffffffffffffffffffffffffffffffffffffffffffffffffffffffff82611413565b61145a8683611413565b95508019841693508086168417925050509392505050565b6000819050919050565b600061149761149261148d84610d21565b611472565b610d21565b9050919050565b6000819050919050565b6114b18361147c565b6114c56114bd8261149e565b848454611420565b825550505050565b600090565b6114da6114cd565b6114e58184846114a8565b505050565b5b81811015611509576114fe6000826114d2565b6001810190506114eb565b5050565b601f82111561154e5761151f816113ee565b61152884611403565b81016020851015611537578190505b61154b61154385611403565b8301826114ea565b50505b505050565b600082821c905092915050565b600061157160001984600802611553565b1980831691505092915050565b600061158a8383611560565b9150826002028217905092915050565b6115a382610d3a565b67ffffffffffffffff8111156115bc576115bb610f57565b5b6115c682546112bf565b6115d182828561150d565b600060209050601f83116001811461160457600084156115f2578287015190505b6115fc858261157e565b865550611664565b601f198416611612866113ee565b60005b8281101561163a57848901518255600182019150602085019450602081019050611615565b868310156116575784890151611653601f891682611560565b8355505b6001600288020188555050505b505050505050565b7f4e487b7100000000000000000000000000000000000000000000000000000000600052601160045260246000fd5b60006116a682610d21565b91507fffffffffffffffffffffffffffffffffffffffffffffffffffffffffffffffff82036116d8576116d761166c565b5b600182019050919050565b60006116ee82610ce0565b9050919050565b6116fe816116e3565b82525050565b600060c08201905061171960008301896116f5565b818103602083015261172b81886111a9565b9050818103604083015261173f81876111a9565b905061174e6060830186611189565b61175b6080830185611189565b61176860a0830184611189565b979650505050505050565b7f4e487b7100000000000000000000000000000000000000000000000000000000600052603260045260246000fd5b7f5468652063616d706169676e2068617320656e64656400000000000000000000600082015250565b60006117d8601683611198565b91506117e3826117a2565b602082019050919050565b60006020820190508181036000830152611807816117cb565b9050919050565b7f416d6f756e74206d75737420626520706f737469766500000000000000000000600082015250565b6000611844601683611198565b915061184f8261180e565b602082019050919050565b6000602082019050818103600083015261187381611837565b9050919050565b7f496e76616c69642043616d706169676e20494400000000000000000000000000600082015250565b60006118b0601383611198565b91506118bb8261187a565b602082019050919050565b600060208201905081810360008301526118df816118a3565b9050919050565b7f43726561746f72277320616d6f756e7420726571756972656d656e7420616c7260008201527f656164792066756c66696c6c6564000000000000000000000000000000000000602082015250565b6000611942602e83611198565b915061194d826118e6565b604082019050919050565b6000602082019050818103600083015261197181611935565b9050919050565b7f496e73756666696369656e742062616c616e636520696e20796f75722077616c60008201527f6c65740000000000000000000000000000000000000000000000000000000000602082015250565b60006119d4602383611198565b91506119df82611978565b604082019050919050565b60006020820190508181036000830152611a03816119c7565b9050919050565b7f596f75206861766520616c726561647920646f6e6174656420746f207468697360008201527f2063616d706169676e0000000000000000000000000000000000000000000000602082015250565b6000611a66602983611198565b9150611a7182611a0a565b604082019050919050565b60006020820190508181036000830152611a9581611a59565b9050919050565b6000611aa782610d21565b9150611ab283610d21565b9250828201905080821115611aca57611ac961166c565b5b92915050565b6000611adb82610d21565b9150611ae683610d21565b9250828203905081811115611afe57611afd61166c565b5b92915050565b6000608082019050611b1960008301876116f5565b611b266020830186611189565b611b336040830185611189565b611b406060830184611189565b9594505050505056fe43726561746f72277320616d6f756e7420726571756972656d656e7420616c72656164792066756c66696c6c656420736f207472616e73666572726564206f6e6c79207468652072656d61696e696e6720616d6f756e74a2646970667358221220c4a39e6ff0de6df63b5ee16eb1f1923db962249b5bff29a218b354a07c070c5564736f6c634300081b0033",
  "linkReferences": {},
  "deployedLinkReferences": {}
}